{"abi":[{"type":"function","name":"cancelSpotOrder","inputs":[{"name":"subaccountID","type":"string","internalType":"string"},{"name":"orderHash","type":"string","internalType":"string"},{"name":"marketID","type":"string","internalType":"string"},{"name":"cid","type":"string","internalType":"string"}],"outputs":[{"name":"","type":"bool","internalType":"bool"}],"stateMutability":"nonpayable"},{"type":"function","name":"createDerivativeLimitOrder","inputs":[{"name":"order","type":"tuple","internalType":"struct IExchangeModule.DerivativeOrder","components":[{"name":"marketID","type":"string","internalType":"string"},{"name":"subaccountID","type":"string","internalType":"string"},{"name":"feeRecipient","type":"string","internalType":"string"},{"name":"price","type":"uint256","internalType":"uint256"},{"name":"quantity","type":"uint256","internalType":"uint256"},{"name":"cid","type":"string","internalType":"string"},{"name":"orderType","type":"string","internalType":"string"},{"name":"margin","type":"uint256","internalType":"uint256"},{"name":"triggerPrice","type":"uint256","internalType":"uint256"}]}],"outputs":[{"name":"response","type":"tuple","internalType":"struct IExchangeModule.CreateDerivativeLimitOrderResponse","components":[{"name":"orderHash","type":"string","internalType":"string"},{"name":"cid","type":"string","internalType":"string"}]}],"stateMutability":"nonpayable"},{"type":"function","name":"deposit","inputs":[{"name":"subaccountID","type":"string","internalType":"string"},{"name":"denom","type":"string","internalType":"string"},{"name":"amount","type":"uint256","internalType":"uint256"}],"outputs":[{"name":"","type":"bool","internalType":"bool"}],"stateMutability":"nonpayable"},{"type":"function","name":"subaccountPositions","inputs":[{"name":"subaccountID","type":"string","internalType":"string"}],"outputs":[{"name":"positions","type":"tuple[]","internalType":"struct IExchangeModule.DerivativePosition[]","components":[{"name":"subaccountID","type":"string","internalType":"string"},{"name":"marketID","type":"string","internalType":"string"},{"name":"isLong","type":"bool","internalType":"bool"},{"name":"quantity","type":"uint256","internalType":"uint256"},{"name":"entryPrice","type":"uint256","internalType":"uint256"},{"name":"margin","type":"uint256","internalType":"uint256"},{"name":"cumulativeFundingEntry","type":"uint256","internalType":"uint256"}]}],"stateMutability":"view"},{"type":"function","name":"withdraw","inputs":[{"name":"subaccountID","type":"string","internalType":"string"},{"name":"denom","type":"string","internalType":"string"},{"name":"amount","type":"uint256","internalType":"uint256"}],"outputs":[{"name":"","type":"bool","internalType":"bool"}],"stateMutability":"nonpayable"}],"bytecode":{"object":"0x608060405260655f5f6101000a81548173ffffffffffffffffffffffffffffffffffffffff021916908373ffffffffffffffffffffffffffffffffffffffff160217905550348015604e575f5ffd5b50611a688061005c5f395ff3fe608060405234801561000f575f5ffd5b5060043610610055575f3560e01c8063222ac055146100595780634b2187e2146100895780639bb15b3c146100b9578063ba73b818146100e9578063e545676114610119575b5f5ffd5b610073600480360381019061006e9190610876565b610149565b6040516100809190610921565b60405180910390f35b6100a3600480360381019061009e919061095d565b6102b9565b6040516100b09190610a6f565b60405180910390f35b6100d360048036038101906100ce9190610a8f565b610427565b6040516100e09190610c53565b60405180910390f35b61010360048036038101906100fe9190610876565b6104ce565b6040516101109190610921565b60405180910390f35b610133600480360381019061012e9190610c73565b61063e565b6040516101409190610921565b60405180910390f35b5f5f5f9054906101000a900473ffffffffffffffffffffffffffffffffffffffff1673ffffffffffffffffffffffffffffffffffffffff1663e441dec93088888888886040518763ffffffff1660e01b81526004016101ad96959493929190610def565b6020604051808303815f875af19250505080156101e857506040513d601f19601f820116820180604052508101906101e59190610e6e565b60015b6102ac576101f4610ea5565b806308c379a00361026f5750610208610f22565b806102135750610271565b806040516020016102249190611035565b6040516020818303038152906040526040517f08c379a0000000000000000000000000000000000000000000000000000000008152600401610266919061108e565b60405180910390fd5b505b6040517f08c379a00000000000000000000000000000000000000000000000000000000081526004016102a3906110f8565b60405180910390fd5b8091505095945050505050565b6102c16107b7565b5f5f9054906101000a900473ffffffffffffffffffffffffffffffffffffffff1673ffffffffffffffffffffffffffffffffffffffff166320c6983730846040518363ffffffff1660e01b815260040161031c9291906112f6565b5f604051808303815f875af192505050801561035a57506040513d5f823e3d601f19601f82011682018060405250810190610357919061146d565b60015b61041e57610366610ea5565b806308c379a0036103e1575061037a610f22565b8061038557506103e3565b806040516020016103969190611524565b6040516020818303038152906040526040517f08c379a00000000000000000000000000000000000000000000000000000000081526004016103d8919061108e565b60405180910390fd5b505b6040517f08c379a0000000000000000000000000000000000000000000000000000000008152600401610415906115b5565b60405180910390fd5b80915050919050565b60605f5f9054906101000a900473ffffffffffffffffffffffffffffffffffffffff1673ffffffffffffffffffffffffffffffffffffffff16639bb15b3c84846040518363ffffffff1660e01b81526004016104849291906115d3565b5f60405180830381865afa15801561049e573d5f5f3e3d5ffd5b505050506040513d5f823e3d601f19601f820116820180604052508101906104c691906117d0565b905092915050565b5f5f5f9054906101000a900473ffffffffffffffffffffffffffffffffffffffff1673ffffffffffffffffffffffffffffffffffffffff1663eb28c2053088888888886040518763ffffffff1660e01b815260040161053296959493929190610def565b6020604051808303815f875af192505050801561056d57506040513d601f19601f8201168201806040525081019061056a9190610e6e565b60015b61063157610579610ea5565b806308c379a0036105f4575061058d610f22565b8061059857506105f6565b806040516020016105a99190611861565b6040516020818303038152906040526040517f08c379a00000000000000000000000000000000000000000000000000000000081526004016105eb919061108e565b60405180910390fd5b505b6040517f08c379a0000000000000000000000000000000000000000000000000000000008152600401610628906118cc565b60405180910390fd5b8091505095945050505050565b5f5f5f9054906101000a900473ffffffffffffffffffffffffffffffffffffffff1673ffffffffffffffffffffffffffffffffffffffff166325bf6b923087878d8d8d8d8b8b6040518a63ffffffff1660e01b81526004016106a8999897969594939291906118ea565b6020604051808303815f875af19250505080156106e357506040513d601f19601f820116820180604052508101906106e09190610e6e565b60015b6107a7576106ef610ea5565b806308c379a00361076a5750610703610f22565b8061070e575061076c565b8060405160200161071f91906119a9565b6040516020818303038152906040526040517f08c379a0000000000000000000000000000000000000000000000000000000008152600401610761919061108e565b60405180910390fd5b505b6040517f08c379a000000000000000000000000000000000000000000000000000000000815260040161079e90611a14565b60405180910390fd5b8091505098975050505050505050565b604051806040016040528060608152602001606081525090565b5f604051905090565b5f5ffd5b5f5ffd5b5f5ffd5b5f5ffd5b5f5ffd5b5f5f83601f840112610803576108026107e2565b5b8235905067ffffffffffffffff8111156108205761081f6107e6565b5b60208301915083600182028301111561083c5761083b6107ea565b5b9250929050565b5f819050919050565b61085581610843565b811461085f575f5ffd5b50565b5f813590506108708161084c565b92915050565b5f5f5f5f5f6060868803121561088f5761088e6107da565b5b5f86013567ffffffffffffffff8111156108ac576108ab6107de565b5b6108b8888289016107ee565b9550955050602086013567ffffffffffffffff8111156108db576108da6107de565b5b6108e7888289016107ee565b935093505060406108fa88828901610862565b9150509295509295909350565b5f8115159050919050565b61091b81610907565b82525050565b5f6020820190506109345f830184610912565b92915050565b5f5ffd5b5f61012082840312156109545761095361093a565b5b81905092915050565b5f60208284031215610972576109716107da565b5b5f82013567ffffffffffffffff81111561098f5761098e6107de565b5b61099b8482850161093e565b91505092915050565b5f81519050919050565b5f82825260208201905092915050565b5f5b838110156109db5780820151818401526020810190506109c0565b5f8484015250505050565b5f601f19601f8301169050919050565b5f610a00826109a4565b610a0a81856109ae565b9350610a1a8185602086016109be565b610a23816109e6565b840191505092915050565b5f604083015f8301518482035f860152610a4882826109f6565b91505060208301518482036020860152610a6282826109f6565b9150508091505092915050565b5f6020820190508181035f830152610a878184610a2e565b905092915050565b5f5f60208385031215610aa557610aa46107da565b5b5f83013567ffffffffffffffff811115610ac257610ac16107de565b5b610ace858286016107ee565b92509250509250929050565b5f81519050919050565b5f82825260208201905092915050565b5f819050602082019050919050565b610b0c81610907565b82525050565b610b1b81610843565b82525050565b5f60e083015f8301518482035f860152610b3b82826109f6565b91505060208301518482036020860152610b5582826109f6565b9150506040830151610b6a6040860182610b03565b506060830151610b7d6060860182610b12565b506080830151610b906080860182610b12565b5060a0830151610ba360a0860182610b12565b5060c0830151610bb660c0860182610b12565b508091505092915050565b5f610bcc8383610b21565b905092915050565b5f602082019050919050565b5f610bea82610ada565b610bf48185610ae4565b935083602082028501610c0685610af4565b805f5b85811015610c415784840389528151610c228582610bc1565b9450610c2d83610bd4565b925060208a01995050600181019050610c09565b50829750879550505050505092915050565b5f6020820190508181035f830152610c6b8184610be0565b905092915050565b5f5f5f5f5f5f5f5f6080898b031215610c8f57610c8e6107da565b5b5f89013567ffffffffffffffff811115610cac57610cab6107de565b5b610cb88b828c016107ee565b9850985050602089013567ffffffffffffffff811115610cdb57610cda6107de565b5b610ce78b828c016107ee565b9650965050604089013567ffffffffffffffff811115610d0a57610d096107de565b5b610d168b828c016107ee565b9450945050606089013567ffffffffffffffff811115610d3957610d386107de565b5b610d458b828c016107ee565b92509250509295985092959890939650565b5f73ffffffffffffffffffffffffffffffffffffffff82169050919050565b5f610d8082610d57565b9050919050565b610d9081610d76565b82525050565b5f82825260208201905092915050565b828183375f83830152505050565b5f610dbf8385610d96565b9350610dcc838584610da6565b610dd5836109e6565b840190509392505050565b610de981610843565b82525050565b5f608082019050610e025f830189610d87565b8181036020830152610e15818789610db4565b90508181036040830152610e2a818587610db4565b9050610e396060830184610de0565b979650505050505050565b610e4d81610907565b8114610e57575f5ffd5b50565b5f81519050610e6881610e44565b92915050565b5f60208284031215610e8357610e826107da565b5b5f610e9084828501610e5a565b91505092915050565b5f8160e01c9050919050565b5f60033d1115610ec15760045f5f3e610ebe5f51610e99565b90505b90565b7f4e487b71000000000000000000000000000000000000000000000000000000005f52604160045260245ffd5b610efa826109e6565b810181811067ffffffffffffffff82111715610f1957610f18610ec4565b5b80604052505050565b5f60443d10610fae57610f336107d1565b60043d036004823e80513d602482011167ffffffffffffffff82111715610f5b575050610fae565b808201805167ffffffffffffffff811115610f795750505050610fae565b80602083010160043d038501811115610f96575050505050610fae565b610fa582602001850186610ef1565b82955050505050505b90565b5f81905092915050565b7f4465706f736974206572726f723a2000000000000000000000000000000000005f82015250565b5f610fef600f83610fb1565b9150610ffa82610fbb565b600f82019050919050565b5f61100f826109a4565b6110198185610fb1565b93506110298185602086016109be565b80840191505092915050565b5f61103f82610fe3565b915061104b8284611005565b915081905092915050565b5f611060826109a4565b61106a8185610d96565b935061107a8185602086016109be565b611083816109e6565b840191505092915050565b5f6020820190508181035f8301526110a68184611056565b905092915050565b7f556e6b6e6f776e206572726f7220647572696e67206465706f736974000000005f82015250565b5f6110e2601c83610d96565b91506110ed826110ae565b602082019050919050565b5f6020820190508181035f83015261110f816110d6565b9050919050565b5f5ffd5b5f5ffd5b5f5ffd5b5f5f8335600160200384360303811261113e5761113d61111e565b5b83810192508235915060208301925067ffffffffffffffff82111561116657611165611116565b5b60018202360383131561117c5761117b61111a565b5b509250929050565b5f61118f83856109ae565b935061119c838584610da6565b6111a5836109e6565b840190509392505050565b5f6111be6020840184610862565b905092915050565b5f61012083016111d85f840184611122565b8583035f8701526111ea838284611184565b925050506111fb6020840184611122565b858303602087015261120e838284611184565b9250505061121f6040840184611122565b8583036040870152611232838284611184565b9250505061124360608401846111b0565b6112506060860182610b12565b5061125e60808401846111b0565b61126b6080860182610b12565b5061127960a0840184611122565b85830360a087015261128c838284611184565b9250505061129d60c0840184611122565b85830360c08701526112b0838284611184565b925050506112c160e08401846111b0565b6112ce60e0860182610b12565b506112dd6101008401846111b0565b6112eb610100860182610b12565b508091505092915050565b5f6040820190506113095f830185610d87565b818103602083015261131b81846111c6565b90509392505050565b5f5ffd5b5f6113316107d1565b905061133d8282610ef1565b919050565b5f5ffd5b5f5ffd5b5f67ffffffffffffffff82111561136457611363610ec4565b5b61136d826109e6565b9050602081019050919050565b5f61138c6113878461134a565b611328565b9050828152602081018484840111156113a8576113a7611346565b5b6113b38482856109be565b509392505050565b5f82601f8301126113cf576113ce6107e2565b5b81516113df84826020860161137a565b91505092915050565b5f604082840312156113fd576113fc611324565b5b6114076040611328565b90505f82015167ffffffffffffffff81111561142657611425611342565b5b611432848285016113bb565b5f83015250602082015167ffffffffffffffff81111561145557611454611342565b5b611461848285016113bb565b60208301525092915050565b5f60208284031215611482576114816107da565b5b5f82015167ffffffffffffffff81111561149f5761149e6107de565b5b6114ab848285016113e8565b91505092915050565b7f437265617465446572697661746976654c696d69744f72646572206572726f725f8201527f3a20000000000000000000000000000000000000000000000000000000000000602082015250565b5f61150e602283610fb1565b9150611519826114b4565b602282019050919050565b5f61152e82611502565b915061153a8284611005565b915081905092915050565b7f556e6b6e6f776e206572726f7220647572696e672063726561746544657269765f8201527f61746976654c696d69744f726465720000000000000000000000000000000000602082015250565b5f61159f602f83610d96565b91506115aa82611545565b604082019050919050565b5f6020820190508181035f8301526115cc81611593565b9050919050565b5f6020820190508181035f8301526115ec818486610db4565b90509392505050565b5f67ffffffffffffffff82111561160f5761160e610ec4565b5b602082029050602081019050919050565b5f8151905061162e8161084c565b92915050565b5f60e0828403121561164957611648611324565b5b61165360e0611328565b90505f82015167ffffffffffffffff81111561167257611671611342565b5b61167e848285016113bb565b5f83015250602082015167ffffffffffffffff8111156116a1576116a0611342565b5b6116ad848285016113bb565b60208301525060406116c184828501610e5a565b60408301525060606116d584828501611620565b60608301525060806116e984828501611620565b60808301525060a06116fd84828501611620565b60a08301525060c061171184828501611620565b60c08301525092915050565b5f61172f61172a846115f5565b611328565b90508083825260208201905060208402830185811115611752576117516107ea565b5b835b8181101561179957805167ffffffffffffffff811115611777576117766107e2565b5b8086016117848982611634565b85526020850194505050602081019050611754565b5050509392505050565b5f82601f8301126117b7576117b66107e2565b5b81516117c784826020860161171d565b91505092915050565b5f602082840312156117e5576117e46107da565b5b5f82015167ffffffffffffffff811115611802576118016107de565b5b61180e848285016117a3565b91505092915050565b7f5769746864726177206572726f723a20000000000000000000000000000000005f82015250565b5f61184b601083610fb1565b915061185682611817565b601082019050919050565b5f61186b8261183f565b91506118778284611005565b915081905092915050565b7f556e6b6e6f776e206572726f7220647572696e672077697468647261770000005f82015250565b5f6118b6601d83610d96565b91506118c182611882565b602082019050919050565b5f6020820190508181035f8301526118e3816118aa565b9050919050565b5f60a0820190506118fd5f83018c610d87565b8181036020830152611910818a8c610db4565b9050818103604083015261192581888a610db4565b9050818103606083015261193a818688610db4565b9050818103608083015261194f818486610db4565b90509a9950505050505050505050565b7f63616e63656c206572726f723a200000000000000000000000000000000000005f82015250565b5f611993600e83610fb1565b915061199e8261195f565b600e82019050919050565b5f6119b382611987565b91506119bf8284611005565b915081905092915050565b7f756e6b6e6f776e206572726f72000000000000000000000000000000000000005f82015250565b5f6119fe600d83610d96565b9150611a09826119ca565b602082019050919050565b5f6020820190508181035f830152611a2b816119f2565b905091905056fea264697066735822122077bfd897a953388ee047791d6d65e44d724b604c7ad3c9f7f4a44485a8e24ed364736f6c634300081c0033","linkReferences":{}},"methodIdentifiers":{"cancelSpotOrder(string,string,string,string)":"e5456761","createDerivativeLimitOrder((string,string,string,uint256,uint256,string,string,uint256,uint256))":"4b2187e2","deposit(string,string,uint256)":"222ac055","subaccountPositions(string)":"9bb15b3c","withdraw(string,string,uint256)":"ba73b818"},"id":0}